{
  "address": "0x02CBBDEe9fB4DBBa46802Dff1669a2D416a8e835",
  "abi": [
    {
      "inputs": [
        {
          "internalType": "address",
          "name": "treasury_",
          "type": "address"
        },
        {
          "internalType": "address",
          "name": "vrfCoordinator_",
          "type": "address"
        },
        {
          "internalType": "address",
          "name": "link_",
          "type": "address"
        },
        {
          "internalType": "uint256",
          "name": "linkFee_",
          "type": "uint256"
        },
        {
          "internalType": "bytes32",
          "name": "keyHash_",
          "type": "bytes32"
        }
      ],
      "stateMutability": "nonpayable",
      "type": "constructor"
    },
    {
      "anonymous": false,
      "inputs": [
        {
          "indexed": true,
          "internalType": "address",
          "name": "token",
          "type": "address"
        }
      ],
      "name": "DewhitelistToken",
      "type": "event"
    },
    {
      "anonymous": false,
      "inputs": [
        {
          "indexed": true,
          "internalType": "address",
          "name": "player",
          "type": "address"
        },
        {
          "indexed": true,
          "internalType": "address",
          "name": "token",
          "type": "address"
        },
        {
          "indexed": true,
          "internalType": "bytes32",
          "name": "requestId",
          "type": "bytes32"
        },
        {
          "indexed": false,
          "internalType": "uint256",
          "name": "playAmount",
          "type": "uint256"
        },
        {
          "indexed": false,
          "internalType": "uint256",
          "name": "resultAmount",
          "type": "uint256"
        }
      ],
      "name": "FullfillPlay",
      "type": "event"
    },
    {
      "anonymous": false,
      "inputs": [
        {
          "indexed": true,
          "internalType": "address",
          "name": "previousOwner",
          "type": "address"
        },
        {
          "indexed": true,
          "internalType": "address",
          "name": "newOwner",
          "type": "address"
        }
      ],
      "name": "OwnershipTransferred",
      "type": "event"
    },
    {
      "anonymous": false,
      "inputs": [
        {
          "indexed": false,
          "internalType": "enum LuckySpin.Risk",
          "name": "risk",
          "type": "uint8"
        },
        {
          "indexed": false,
          "internalType": "uint16",
          "name": "segment",
          "type": "uint16"
        }
      ],
      "name": "RegisterSegment",
      "type": "event"
    },
    {
      "anonymous": false,
      "inputs": [
        {
          "indexed": true,
          "internalType": "address",
          "name": "player",
          "type": "address"
        },
        {
          "indexed": true,
          "internalType": "address",
          "name": "token",
          "type": "address"
        },
        {
          "indexed": true,
          "internalType": "bytes32",
          "name": "requestId",
          "type": "bytes32"
        },
        {
          "indexed": false,
          "internalType": "uint256",
          "name": "amount",
          "type": "uint256"
        }
      ],
      "name": "RequestPlay",
      "type": "event"
    },
    {
      "anonymous": false,
      "inputs": [
        {
          "indexed": false,
          "internalType": "enum LuckySpin.Risk",
          "name": "risk",
          "type": "uint8"
        },
        {
          "indexed": false,
          "internalType": "uint16",
          "name": "segment",
          "type": "uint16"
        }
      ],
      "name": "UnregisterSegment",
      "type": "event"
    },
    {
      "anonymous": false,
      "inputs": [
        {
          "indexed": true,
          "internalType": "address",
          "name": "treasury",
          "type": "address"
        }
      ],
      "name": "UpdateTreasury",
      "type": "event"
    },
    {
      "anonymous": false,
      "inputs": [
        {
          "indexed": true,
          "internalType": "address",
          "name": "token",
          "type": "address"
        }
      ],
      "name": "WhitelistToken",
      "type": "event"
    },
    {
      "inputs": [
        {
          "internalType": "address",
          "name": "token",
          "type": "address"
        }
      ],
      "name": "dewhitelistToken",
      "outputs": [],
      "stateMutability": "nonpayable",
      "type": "function"
    },
    {
      "inputs": [],
      "name": "keyHash",
      "outputs": [
        {
          "internalType": "bytes32",
          "name": "",
          "type": "bytes32"
        }
      ],
      "stateMutability": "view",
      "type": "function"
    },
    {
      "inputs": [],
      "name": "linkFee",
      "outputs": [
        {
          "internalType": "uint256",
          "name": "",
          "type": "uint256"
        }
      ],
      "stateMutability": "view",
      "type": "function"
    },
    {
      "inputs": [],
      "name": "owner",
      "outputs": [
        {
          "internalType": "address",
          "name": "",
          "type": "address"
        }
      ],
      "stateMutability": "view",
      "type": "function"
    },
    {
      "inputs": [
        {
          "internalType": "address",
          "name": "token",
          "type": "address"
        },
        {
          "internalType": "uint256",
          "name": "amount",
          "type": "uint256"
        },
        {
          "internalType": "enum LuckySpin.Risk",
          "name": "risk",
          "type": "uint8"
        },
        {
          "internalType": "uint16",
          "name": "segment",
          "type": "uint16"
        }
      ],
      "name": "play",
      "outputs": [],
      "stateMutability": "nonpayable",
      "type": "function"
    },
    {
      "inputs": [
        {
          "internalType": "bytes32",
          "name": "",
          "type": "bytes32"
        }
      ],
      "name": "playInfos",
      "outputs": [
        {
          "internalType": "address",
          "name": "player",
          "type": "address"
        },
        {
          "internalType": "address",
          "name": "token",
          "type": "address"
        },
        {
          "internalType": "uint64",
          "name": "playTime",
          "type": "uint64"
        },
        {
          "internalType": "uint256",
          "name": "amount",
          "type": "uint256"
        },
        {
          "internalType": "enum LuckySpin.Risk",
          "name": "risk",
          "type": "uint8"
        },
        {
          "internalType": "uint16",
          "name": "segment",
          "type": "uint16"
        }
      ],
      "stateMutability": "view",
      "type": "function"
    },
    {
      "inputs": [
        {
          "internalType": "bytes32",
          "name": "requestId",
          "type": "bytes32"
        },
        {
          "internalType": "uint256",
          "name": "randomness",
          "type": "uint256"
        }
      ],
      "name": "rawFulfillRandomness",
      "outputs": [],
      "stateMutability": "nonpayable",
      "type": "function"
    },
    {
      "inputs": [
        {
          "internalType": "enum LuckySpin.Risk",
          "name": "risk",
          "type": "uint8"
        },
        {
          "internalType": "uint16",
          "name": "segment",
          "type": "uint16"
        }
      ],
      "name": "registerSegment",
      "outputs": [],
      "stateMutability": "nonpayable",
      "type": "function"
    },
    {
      "inputs": [],
      "name": "renounceOwnership",
      "outputs": [],
      "stateMutability": "nonpayable",
      "type": "function"
    },
    {
      "inputs": [
        {
          "internalType": "enum LuckySpin.Risk",
          "name": "",
          "type": "uint8"
        },
        {
          "internalType": "uint16",
          "name": "",
          "type": "uint16"
        }
      ],
      "name": "segmentExist",
      "outputs": [
        {
          "internalType": "bool",
          "name": "",
          "type": "bool"
        }
      ],
      "stateMutability": "view",
      "type": "function"
    },
    {
      "inputs": [
        {
          "internalType": "enum LuckySpin.Risk",
          "name": "",
          "type": "uint8"
        },
        {
          "internalType": "uint16",
          "name": "",
          "type": "uint16"
        },
        {
          "internalType": "uint16",
          "name": "",
          "type": "uint16"
        }
      ],
      "name": "segmentsInfo",
      "outputs": [
        {
          "internalType": "uint32",
          "name": "",
          "type": "uint32"
        }
      ],
      "stateMutability": "view",
      "type": "function"
    },
    {
      "inputs": [
        {
          "internalType": "enum LuckySpin.Risk",
          "name": "risk",
          "type": "uint8"
        },
        {
          "internalType": "uint16",
          "name": "segment",
          "type": "uint16"
        },
        {
          "internalType": "uint16[]",
          "name": "indexes",
          "type": "uint16[]"
        },
        {
          "internalType": "uint32[]",
          "name": "rates",
          "type": "uint32[]"
        }
      ],
      "name": "setSegments",
      "outputs": [],
      "stateMutability": "nonpayable",
      "type": "function"
    },
    {
      "inputs": [
        {
          "internalType": "address",
          "name": "treasury_",
          "type": "address"
        }
      ],
      "name": "setTreasury",
      "outputs": [],
      "stateMutability": "nonpayable",
      "type": "function"
    },
    {
      "inputs": [
        {
          "internalType": "address",
          "name": "newOwner",
          "type": "address"
        }
      ],
      "name": "transferOwnership",
      "outputs": [],
      "stateMutability": "nonpayable",
      "type": "function"
    },
    {
      "inputs": [],
      "name": "treasury",
      "outputs": [
        {
          "internalType": "address",
          "name": "",
          "type": "address"
        }
      ],
      "stateMutability": "view",
      "type": "function"
    },
    {
      "inputs": [
        {
          "internalType": "enum LuckySpin.Risk",
          "name": "risk",
          "type": "uint8"
        },
        {
          "internalType": "uint16",
          "name": "segment",
          "type": "uint16"
        }
      ],
      "name": "unregisterSegment",
      "outputs": [],
      "stateMutability": "nonpayable",
      "type": "function"
    },
    {
      "inputs": [
        {
          "internalType": "address",
          "name": "token",
          "type": "address"
        }
      ],
      "name": "whitelistToken",
      "outputs": [],
      "stateMutability": "nonpayable",
      "type": "function"
    },
    {
      "inputs": [
        {
          "internalType": "address",
          "name": "",
          "type": "address"
        }
      ],
      "name": "whitelistedTokens",
      "outputs": [
        {
          "internalType": "bool",
          "name": "",
          "type": "bool"
        }
      ],
      "stateMutability": "view",
      "type": "function"
    }
  ],
  "transactionHash": "0x146160c2cccc5d822fcacc0d75ef2e4fdae35ee8f469768ea76d8b3bac8f567f",
  "args": [
    "0x02CBBDEe9fB4DBBa46802Dff1669a2D416a8e835",
    "0xb3dCcb4Cf7a26f6cf6B120Cf5A73875B7BBc655B",
    "0x01BE23585060835E02B77ef475b0Cc51aA1e0709",
    "100000000000000000",
    "0x2ed0feb3e7fd2022120aa84fab1945545a9f2ffc9076fd6156fa96eaff4c1311"
  ],
  "solcInputHash": "74b9b2fdcbeb64494a7face6e2712b10",
  "bytecode": "0x60c06040523480156200001157600080fd5b5060405162001cb838038062001cb88339810160408190526200003491620001d3565b838386620000423362000073565b6200004d81620000c3565b506001600160a01b0391821660a052166080526004919091556005555062000230915050565b600080546001600160a01b038381166001600160a01b0319831681178455604051919092169283917f8be0079c531659141344cd1fd0a4f28419497f9722a3daafe3b4186f6b6457e09190a35050565b6000546001600160a01b03163314620001235760405162461bcd60e51b815260206004820181905260248201527f4f776e61626c653a2063616c6c6572206973206e6f7420746865206f776e657260448201526064015b60405180910390fd5b6001600160a01b0381166200016c5760405162461bcd60e51b815260206004820152600e60248201526d7a65726f2074726561737572792160901b60448201526064016200011a565b600180546001600160a01b0319166001600160a01b0383169081179091556040517f1f54d231bb9d500b1923e4a1cb25e600f366a8368873d9af7c1c623814df19fc90600090a250565b80516001600160a01b0381168114620001ce57600080fd5b919050565b600080600080600060a08688031215620001ec57600080fd5b620001f786620001b6565b94506200020760208701620001b6565b93506200021760408701620001b6565b6060870151608090970151959894975095949392505050565b60805160a051611a5b6200025d60003960008181610c9e0152610f0201526000610ed30152611a5b6000f3fe608060405234801561001057600080fd5b50600436106101165760003560e01c80636247f6f2116100a25780638da5cb5b116100715780638da5cb5b146102e657806394985ddd146102f7578063daf9c2101461030a578063f0f442601461032d578063f2fde38b1461034057600080fd5b80636247f6f2146102435780636ad8750b14610256578063715018a6146102cb57806386b40a1b146102d357600080fd5b80633c0960b9116100e95780633c0960b91461019d5780634aad5784146101b0578063527fd871146101c357806361728f391461020f57806361d027b31461021857600080fd5b8063018896111461011b5780630fb157fa1461013757806313961d331461017557806322221cbe1461018a575b600080fd5b61012460045481565b6040519081526020015b60405180910390f35b610165610145366004611557565b600760209081526000928352604080842090915290825290205460ff1681565b604051901515815260200161012e565b610188610183366004611557565b610353565b005b610188610198366004611557565b610486565b6101886101ab3660046115d6565b6105c3565b6101886101be36600461167e565b6107a6565b6101fa6101d13660046116cb565b600660209081526000938452604080852082529284528284209052825290205463ffffffff1681565b60405163ffffffff909116815260200161012e565b61012460055481565b60015461022b906001600160a01b031681565b6040516001600160a01b03909116815260200161012e565b61018861025136600461170e565b610a7e565b6102b9610264366004611729565b60086020526000908152604090208054600182015460028301546003909301546001600160a01b039283169392821692600160a01b90920467ffffffffffffffff16919060ff811690610100900461ffff1686565b60405161012e9695949392919061177a565b610188610b8f565b6101886102e136600461170e565b610bc5565b6000546001600160a01b031661022b565b6101886103053660046117cb565b610c93565b61016561031836600461170e565b60026020526000908152604090205460ff1681565b61018861033b36600461170e565b610d19565b61018861034e36600461170e565b610dd4565b6000546001600160a01b031633146103865760405162461bcd60e51b815260040161037d906117ed565b60405180910390fd5b6007600083600281111561039c5761039c611742565b60028111156103ad576103ad611742565b81526020808201929092526040908101600090812061ffff8516825290925290205460ff166103ee5760405162461bcd60e51b815260040161037d90611822565b60006007600084600281111561040657610406611742565b600281111561041757610417611742565b81526020808201929092526040908101600090812061ffff8616825290925290819020805460ff191692151592909217909155517fee96af4472539aa519827fd3cf2aa338e2178fade4edfd9091a138dc1ae85eb89061047a908490849061184b565b60405180910390a15050565b6000546001600160a01b031633146104b05760405162461bcd60e51b815260040161037d906117ed565b600760008360028111156104c6576104c6611742565b60028111156104d7576104d7611742565b81526020808201929092526040908101600090812061ffff8516825290925290205460ff16156105375760405162461bcd60e51b815260206004820152600b60248201526a726567697374657265642160a81b604482015260640161037d565b60016007600084600281111561054f5761054f611742565b600281111561056057610560611742565b81526020808201929092526040908101600090812061ffff8616825290925290819020805460ff191692151592909217909155517fa3f4fd44fac6756a4a0f44fe776adee493e3ef9430dbc861d8077773a68d29e19061047a908490849061184b565b8585600760008360028111156105db576105db611742565b60028111156105ec576105ec611742565b81526020808201929092526040908101600090812061ffff8516825290925290205460ff1661062d5760405162461bcd60e51b815260040161037d90611822565b6000546001600160a01b031633146106575760405162461bcd60e51b815260040161037d906117ed565b841580159061066a575061ffff87168511155b801561067557508483145b6106b25760405162461bcd60e51b815260206004820152600e60248201526d0d2dcecc2d8d2c840d8cadccee8d60931b604482015260640161037d565b8460005b8181101561079a578585828181106106d0576106d061186a565b90506020020160208101906106e59190611880565b600660008c60028111156106fb576106fb611742565b600281111561070c5761070c611742565b815260200190815260200160002060008b61ffff1661ffff16815260200190815260200160002060008a8a858181106107475761074761186a565b905060200201602081019061075c91906118a6565b61ffff1681526020810191909152604001600020805463ffffffff191663ffffffff929092169190911790556107936001826118d7565b90506106b6565b50505050505050505050565b8181600760008360028111156107be576107be611742565b60028111156107cf576107cf611742565b81526020808201929092526040908101600090812061ffff8516825290925290205460ff166108105760405162461bcd60e51b815260040161037d90611822565b6001600160a01b038616600090815260026020526040902054869060ff166108735760405162461bcd60e51b81526020600482015260166024820152756e6f742077686974656c697374656420746f6b656e2160501b604482015260640161037d565b61088e336001546001600160a01b038a811692911689610e6f565b600061089e600554600454610ecf565b600081815260086020526040902060020154909150156108f55760405162461bcd60e51b8152602060048201526012602482015271616c7265616479207265717565737465642160701b604482015260640161037d565b6040518060c001604052806109073390565b6001600160a01b03168152602001896001600160a01b031681526020014267ffffffffffffffff16815260200188815260200187600281111561094c5761094c611742565b815261ffff8716602091820152600083815260088252604090819020835181546001600160a01b039182166001600160a01b031990911617825592840151600180830180549487015167ffffffffffffffff16600160a01b026001600160e01b0319909516929095169190911792909217909255606083015160028084019190915560808401516003840180549193909260ff199092169184908111156109f5576109f5611742565b021790555060a091909101516003909101805461ffff9092166101000262ffff0019909216919091179055806001600160a01b038916610a323390565b6001600160a01b03167f984ea472828ae6d06ed8c1b00f12c1167b7b3298f90cb6d214f508a7f2c633ac8a604051610a6c91815260200190565b60405180910390a45050505050505050565b6000546001600160a01b03163314610aa85760405162461bcd60e51b815260040161037d906117ed565b6001600160a01b038116610aeb5760405162461bcd60e51b815260206004820152600a6024820152697a65726f20616464722160b01b604482015260640161037d565b6001600160a01b03811660009081526002602052604090205460ff1615610b435760405162461bcd60e51b815260206004820152600c60248201526b77686974656c69737465642160a01b604482015260640161037d565b6001600160a01b038116600081815260026020526040808220805460ff19166001179055517f135fa382eab99c8178b56314eb5b6dff1763d35fdb177c8332f18e0a4ff32e4f9190a250565b6000546001600160a01b03163314610bb95760405162461bcd60e51b815260040161037d906117ed565b610bc36000611053565b565b6000546001600160a01b03163314610bef5760405162461bcd60e51b815260040161037d906117ed565b6001600160a01b03811660009081526002602052604090205460ff16610c4a5760405162461bcd60e51b815260206004820152601060248201526f6e6f742077686974656c69737465642160801b604482015260640161037d565b6001600160a01b038116600081815260026020526040808220805460ff19169055517fc9cc738906f64d4a4d9521d856f5a985c4451514612d425061c01cdab7e60e999190a250565b336001600160a01b037f00000000000000000000000000000000000000000000000000000000000000001614610d0b5760405162461bcd60e51b815260206004820152601f60248201527f4f6e6c7920565246436f6f7264696e61746f722063616e2066756c66696c6c00604482015260640161037d565b610d1582826110a3565b5050565b6000546001600160a01b03163314610d435760405162461bcd60e51b815260040161037d906117ed565b6001600160a01b038116610d8a5760405162461bcd60e51b815260206004820152600e60248201526d7a65726f2074726561737572792160901b604482015260640161037d565b600180546001600160a01b0319166001600160a01b0383169081179091556040517f1f54d231bb9d500b1923e4a1cb25e600f366a8368873d9af7c1c623814df19fc90600090a250565b6000546001600160a01b03163314610dfe5760405162461bcd60e51b815260040161037d906117ed565b6001600160a01b038116610e635760405162461bcd60e51b815260206004820152602660248201527f4f776e61626c653a206e6577206f776e657220697320746865207a65726f206160448201526564647265737360d01b606482015260840161037d565b610e6c81611053565b50565b604080516001600160a01b0385811660248301528416604482015260648082018490528251808303909101815260849091019091526020810180516001600160e01b03166323b872dd60e01b179052610ec99085906112e0565b50505050565b60007f00000000000000000000000000000000000000000000000000000000000000006001600160a01b0316634000aea07f000000000000000000000000000000000000000000000000000000000000000084866000604051602001610f3f929190918252602082015260400190565b6040516020818303038152906040526040518463ffffffff1660e01b8152600401610f6c93929190611947565b6020604051808303816000875af1158015610f8b573d6000803e3d6000fd5b505050506040513d601f19601f82011682018060405250810190610faf9190611977565b50600083815260036020818152604080842054815180840189905280830186905230606082015260808082018390528351808303909101815260a09091019092528151918301919091209387905291905261100b9060016118d7565b60008581526003602052604090205561104b8482604080516020808201949094528082019290925280518083038201815260609092019052805191012090565b949350505050565b600080546001600160a01b038381166001600160a01b0319831681178455604051919092169283917f8be0079c531659141344cd1fd0a4f28419497f9722a3daafe3b4186f6b6457e09190a35050565b600082815260086020526040902060028101546110f05760405162461bcd60e51b815260206004820152600b60248201526a6e6f20726571756573742160a81b604482015260640161037d565b600381015460009061110b90610100900461ffff16846119af565b6003830154909150600090600690829060ff16600281111561112f5761112f611742565b600281111561114057611140611742565b815260208082019290925260409081016000908120600387015461ffff61010090910481168352908452828220908616825290925290205463ffffffff1690508015611283576000620f424063ffffffff168263ffffffff1685600201546111a891906119c3565b6111b291906119e2565b60018054908601548654604051631ec81aa160e31b81526001600160a01b039283166004820152602481018590529082166044820152929350169063f640d50890606401600060405180830381600087803b15801561121057600080fd5b505af1158015611224573d6000803e3d6000fd5b50505050600184015484546002860154604080519182526020820185905289936001600160a01b039081169316917fc0bc64f14147bc387646a5bfabd22e5ed921dfad9e5a46bf54ac79934e7c338f910160405180910390a4506112d9565b600183015483546002850154604080519182526000602083015288936001600160a01b039081169316917fc0bc64f14147bc387646a5bfabd22e5ed921dfad9e5a46bf54ac79934e7c338f910160405180910390a45b5050505050565b6000611335826040518060400160405280602081526020017f5361666545524332303a206c6f772d6c6576656c2063616c6c206661696c6564815250856001600160a01b03166113b79092919063ffffffff16565b8051909150156113b257808060200190518101906113539190611977565b6113b25760405162461bcd60e51b815260206004820152602a60248201527f5361666545524332303a204552433230206f7065726174696f6e20646964206e6044820152691bdd081cdd58d8d9595960b21b606482015260840161037d565b505050565b60606113c684846000856113d0565b90505b9392505050565b6060824710156114315760405162461bcd60e51b815260206004820152602660248201527f416464726573733a20696e73756666696369656e742062616c616e636520666f6044820152651c8818d85b1b60d21b606482015260840161037d565b843b61147f5760405162461bcd60e51b815260206004820152601d60248201527f416464726573733a2063616c6c20746f206e6f6e2d636f6e7472616374000000604482015260640161037d565b600080866001600160a01b0316858760405161149b91906119f6565b60006040518083038185875af1925050503d80600081146114d8576040519150601f19603f3d011682016040523d82523d6000602084013e6114dd565b606091505b50915091506114ed8282866114f8565b979650505050505050565b606083156115075750816113c9565b8251156115175782518084602001fd5b8160405162461bcd60e51b815260040161037d9190611a12565b80356003811061154057600080fd5b919050565b803561ffff8116811461154057600080fd5b6000806040838503121561156a57600080fd5b61157383611531565b915061158160208401611545565b90509250929050565b60008083601f84011261159c57600080fd5b50813567ffffffffffffffff8111156115b457600080fd5b6020830191508360208260051b85010111156115cf57600080fd5b9250929050565b600080600080600080608087890312156115ef57600080fd5b6115f887611531565b955061160660208801611545565b9450604087013567ffffffffffffffff8082111561162357600080fd5b61162f8a838b0161158a565b9096509450606089013591508082111561164857600080fd5b5061165589828a0161158a565b979a9699509497509295939492505050565b80356001600160a01b038116811461154057600080fd5b6000806000806080858703121561169457600080fd5b61169d85611667565b9350602085013592506116b260408601611531565b91506116c060608601611545565b905092959194509250565b6000806000606084860312156116e057600080fd5b6116e984611531565b92506116f760208501611545565b915061170560408501611545565b90509250925092565b60006020828403121561172057600080fd5b6113c982611667565b60006020828403121561173b57600080fd5b5035919050565b634e487b7160e01b600052602160045260246000fd5b6003811061177657634e487b7160e01b600052602160045260246000fd5b9052565b6001600160a01b0387811682528616602082015267ffffffffffffffff851660408201526060810184905260c081016117b66080830185611758565b61ffff831660a0830152979650505050505050565b600080604083850312156117de57600080fd5b50508035926020909101359150565b6020808252818101527f4f776e61626c653a2063616c6c6572206973206e6f7420746865206f776e6572604082015260600190565b6020808252600f908201526e6e6f7420726567697374657265642160881b604082015260600190565b604081016118598285611758565b61ffff831660208301529392505050565b634e487b7160e01b600052603260045260246000fd5b60006020828403121561189257600080fd5b813563ffffffff811681146113c957600080fd5b6000602082840312156118b857600080fd5b6113c982611545565b634e487b7160e01b600052601160045260246000fd5b600082198211156118ea576118ea6118c1565b500190565b60005b8381101561190a5781810151838201526020016118f2565b83811115610ec95750506000910152565b600081518084526119338160208601602086016118ef565b601f01601f19169290920160200192915050565b60018060a01b038416815282602082015260606040820152600061196e606083018461191b565b95945050505050565b60006020828403121561198957600080fd5b815180151581146113c957600080fd5b634e487b7160e01b600052601260045260246000fd5b6000826119be576119be611999565b500690565b60008160001904831182151516156119dd576119dd6118c1565b500290565b6000826119f1576119f1611999565b500490565b60008251611a088184602087016118ef565b9190910192915050565b6020815260006113c9602083018461191b56fea26469706673582212202ec56fc56478342eaae839e7b080e0dc2a00d09133b5b7b543669e824ab3451464736f6c634300080a0033",
  "devdoc": {
    "kind": "dev",
    "methods": {
      "owner()": {
        "details": "Returns the address of the current owner."
      },
      "renounceOwnership()": {
        "details": "Leaves the contract without owner. It will not be possible to call `onlyOwner` functions anymore. Can only be called by the current owner. NOTE: Renouncing ownership will leave the contract without an owner, thereby removing any functionality that is only available to the owner."
      },
      "transferOwnership(address)": {
        "details": "Transfers ownership of the contract to a new account (`newOwner`). Can only be called by the current owner."
      }
    },
    "version": 1
  },
  "userdoc": {
    "kind": "user",
    "methods": {},
    "version": 1
  },
  "storageLayout": {
    "storage": [
      {
        "astId": 273,
        "contract": "contracts/LuckySpin.sol:LuckySpin",
        "label": "_owner",
        "offset": 0,
        "slot": "0",
        "type": "t_address"
      },
      {
        "astId": 2211,
        "contract": "contracts/LuckySpin.sol:LuckySpin",
        "label": "treasury",
        "offset": 0,
        "slot": "1",
        "type": "t_address"
      },
      {
        "astId": 2215,
        "contract": "contracts/LuckySpin.sol:LuckySpin",
        "label": "whitelistedTokens",
        "offset": 0,
        "slot": "2",
        "type": "t_mapping(t_address,t_bool)"
      },
      {
        "astId": 79,
        "contract": "contracts/LuckySpin.sol:LuckySpin",
        "label": "nonces",
        "offset": 0,
        "slot": "3",
        "type": "t_mapping(t_bytes32,t_uint256)"
      },
      {
        "astId": 1636,
        "contract": "contracts/LuckySpin.sol:LuckySpin",
        "label": "linkFee",
        "offset": 0,
        "slot": "4",
        "type": "t_uint256"
      },
      {
        "astId": 1638,
        "contract": "contracts/LuckySpin.sol:LuckySpin",
        "label": "keyHash",
        "offset": 0,
        "slot": "5",
        "type": "t_bytes32"
      },
      {
        "astId": 1647,
        "contract": "contracts/LuckySpin.sol:LuckySpin",
        "label": "segmentsInfo",
        "offset": 0,
        "slot": "6",
        "type": "t_mapping(t_enum(Risk)1617,t_mapping(t_uint16,t_mapping(t_uint16,t_uint32)))"
      },
      {
        "astId": 1654,
        "contract": "contracts/LuckySpin.sol:LuckySpin",
        "label": "segmentExist",
        "offset": 0,
        "slot": "7",
        "type": "t_mapping(t_enum(Risk)1617,t_mapping(t_uint16,t_bool))"
      },
      {
        "astId": 1659,
        "contract": "contracts/LuckySpin.sol:LuckySpin",
        "label": "playInfos",
        "offset": 0,
        "slot": "8",
        "type": "t_mapping(t_bytes32,t_struct(PlayInfo)1631_storage)"
      }
    ],
    "types": {
      "t_address": {
        "encoding": "inplace",
        "label": "address",
        "numberOfBytes": "20"
      },
      "t_bool": {
        "encoding": "inplace",
        "label": "bool",
        "numberOfBytes": "1"
      },
      "t_bytes32": {
        "encoding": "inplace",
        "label": "bytes32",
        "numberOfBytes": "32"
      },
      "t_enum(Risk)1617": {
        "encoding": "inplace",
        "label": "enum LuckySpin.Risk",
        "numberOfBytes": "1"
      },
      "t_mapping(t_address,t_bool)": {
        "encoding": "mapping",
        "key": "t_address",
        "label": "mapping(address => bool)",
        "numberOfBytes": "32",
        "value": "t_bool"
      },
      "t_mapping(t_bytes32,t_struct(PlayInfo)1631_storage)": {
        "encoding": "mapping",
        "key": "t_bytes32",
        "label": "mapping(bytes32 => struct LuckySpin.PlayInfo)",
        "numberOfBytes": "32",
        "value": "t_struct(PlayInfo)1631_storage"
      },
      "t_mapping(t_bytes32,t_uint256)": {
        "encoding": "mapping",
        "key": "t_bytes32",
        "label": "mapping(bytes32 => uint256)",
        "numberOfBytes": "32",
        "value": "t_uint256"
      },
      "t_mapping(t_enum(Risk)1617,t_mapping(t_uint16,t_bool))": {
        "encoding": "mapping",
        "key": "t_enum(Risk)1617",
        "label": "mapping(enum LuckySpin.Risk => mapping(uint16 => bool))",
        "numberOfBytes": "32",
        "value": "t_mapping(t_uint16,t_bool)"
      },
      "t_mapping(t_enum(Risk)1617,t_mapping(t_uint16,t_mapping(t_uint16,t_uint32)))": {
        "encoding": "mapping",
        "key": "t_enum(Risk)1617",
        "label": "mapping(enum LuckySpin.Risk => mapping(uint16 => mapping(uint16 => uint32)))",
        "numberOfBytes": "32",
        "value": "t_mapping(t_uint16,t_mapping(t_uint16,t_uint32))"
      },
      "t_mapping(t_uint16,t_bool)": {
        "encoding": "mapping",
        "key": "t_uint16",
        "label": "mapping(uint16 => bool)",
        "numberOfBytes": "32",
        "value": "t_bool"
      },
      "t_mapping(t_uint16,t_mapping(t_uint16,t_uint32))": {
        "encoding": "mapping",
        "key": "t_uint16",
        "label": "mapping(uint16 => mapping(uint16 => uint32))",
        "numberOfBytes": "32",
        "value": "t_mapping(t_uint16,t_uint32)"
      },
      "t_mapping(t_uint16,t_uint32)": {
        "encoding": "mapping",
        "key": "t_uint16",
        "label": "mapping(uint16 => uint32)",
        "numberOfBytes": "32",
        "value": "t_uint32"
      },
      "t_struct(PlayInfo)1631_storage": {
        "encoding": "inplace",
        "label": "struct LuckySpin.PlayInfo",
        "members": [
          {
            "astId": 1619,
            "contract": "contracts/LuckySpin.sol:LuckySpin",
            "label": "player",
            "offset": 0,
            "slot": "0",
            "type": "t_address"
          },
          {
            "astId": 1621,
            "contract": "contracts/LuckySpin.sol:LuckySpin",
            "label": "token",
            "offset": 0,
            "slot": "1",
            "type": "t_address"
          },
          {
            "astId": 1623,
            "contract": "contracts/LuckySpin.sol:LuckySpin",
            "label": "playTime",
            "offset": 20,
            "slot": "1",
            "type": "t_uint64"
          },
          {
            "astId": 1625,
            "contract": "contracts/LuckySpin.sol:LuckySpin",
            "label": "amount",
            "offset": 0,
            "slot": "2",
            "type": "t_uint256"
          },
          {
            "astId": 1628,
            "contract": "contracts/LuckySpin.sol:LuckySpin",
            "label": "risk",
            "offset": 0,
            "slot": "3",
            "type": "t_enum(Risk)1617"
          },
          {
            "astId": 1630,
            "contract": "contracts/LuckySpin.sol:LuckySpin",
            "label": "segment",
            "offset": 1,
            "slot": "3",
            "type": "t_uint16"
          }
        ],
        "numberOfBytes": "128"
      },
      "t_uint16": {
        "encoding": "inplace",
        "label": "uint16",
        "numberOfBytes": "2"
      },
      "t_uint256": {
        "encoding": "inplace",
        "label": "uint256",
        "numberOfBytes": "32"
      },
      "t_uint32": {
        "encoding": "inplace",
        "label": "uint32",
        "numberOfBytes": "4"
      },
      "t_uint64": {
        "encoding": "inplace",
        "label": "uint64",
        "numberOfBytes": "8"
      }
    }
  }
}