{
  "address": "0x02CBBDEe9fB4DBBa46802Dff1669a2D416a8e835",
  "abi": [
    {
      "anonymous": false,
      "inputs": [
        {
          "indexed": true,
          "internalType": "address",
          "name": "game",
          "type": "address"
        }
      ],
      "name": "DewhitelistGame",
      "type": "event"
    },
    {
      "anonymous": false,
      "inputs": [
        {
          "indexed": true,
          "internalType": "address",
          "name": "previousOwner",
          "type": "address"
        },
        {
          "indexed": true,
          "internalType": "address",
          "name": "newOwner",
          "type": "address"
        }
      ],
      "name": "OwnershipTransferred",
      "type": "event"
    },
    {
      "anonymous": false,
      "inputs": [
        {
          "indexed": true,
          "internalType": "address",
          "name": "game",
          "type": "address"
        }
      ],
      "name": "WhitelistGame",
      "type": "event"
    },
    {
      "inputs": [
        {
          "internalType": "address",
          "name": "game",
          "type": "address"
        }
      ],
      "name": "dewhitelistGame",
      "outputs": [],
      "stateMutability": "nonpayable",
      "type": "function"
    },
    {
      "inputs": [],
      "name": "owner",
      "outputs": [
        {
          "internalType": "address",
          "name": "",
          "type": "address"
        }
      ],
      "stateMutability": "view",
      "type": "function"
    },
    {
      "inputs": [],
      "name": "renounceOwnership",
      "outputs": [],
      "stateMutability": "nonpayable",
      "type": "function"
    },
    {
      "inputs": [
        {
          "internalType": "uint256",
          "name": "amount",
          "type": "uint256"
        },
        {
          "internalType": "address",
          "name": "recipient",
          "type": "address"
        }
      ],
      "name": "transferETH",
      "outputs": [],
      "stateMutability": "nonpayable",
      "type": "function"
    },
    {
      "inputs": [
        {
          "internalType": "address",
          "name": "newOwner",
          "type": "address"
        }
      ],
      "name": "transferOwnership",
      "outputs": [],
      "stateMutability": "nonpayable",
      "type": "function"
    },
    {
      "inputs": [
        {
          "internalType": "address",
          "name": "token",
          "type": "address"
        },
        {
          "internalType": "uint256",
          "name": "amount",
          "type": "uint256"
        },
        {
          "internalType": "address",
          "name": "recipient",
          "type": "address"
        }
      ],
      "name": "transferToken",
      "outputs": [],
      "stateMutability": "nonpayable",
      "type": "function"
    },
    {
      "inputs": [
        {
          "internalType": "address",
          "name": "game",
          "type": "address"
        }
      ],
      "name": "whitelistGame",
      "outputs": [],
      "stateMutability": "nonpayable",
      "type": "function"
    },
    {
      "inputs": [
        {
          "internalType": "address",
          "name": "",
          "type": "address"
        }
      ],
      "name": "whitelistedGames",
      "outputs": [
        {
          "internalType": "bool",
          "name": "",
          "type": "bool"
        }
      ],
      "stateMutability": "view",
      "type": "function"
    }
  ],
  "transactionHash": "0x644518dd8fc886d4d86bfd205fe1793a3b3bc294d467f7edd30eef713714da3f",
  "args": [],
  "solcInputHash": "74b9b2fdcbeb64494a7face6e2712b10",
  "bytecode": "0x608060405234801561001057600080fd5b5061001a3361001f565b61006f565b600080546001600160a01b038381166001600160a01b0319831681178455604051919092169283917f8be0079c531659141344cd1fd0a4f28419497f9722a3daafe3b4186f6b6457e09190a35050565b6109cb8061007e6000396000f3fe608060405234801561001057600080fd5b50600436106100885760003560e01c80638da5cb5b1161005b5780638da5cb5b146100f5578063bea7e4be14610110578063f2fde38b14610123578063f640d5081461013657600080fd5b80630f479a071461008d5780636cdd1d57146100a25780636e07c470146100da578063715018a6146100ed575b600080fd5b6100a061009b366004610812565b610149565b005b6100c56100b0366004610812565b60016020526000908152604090205460ff1681565b60405190151581526020015b60405180910390f35b6100a06100e836600461082d565b610266565b6100a0610318565b6000546040516001600160a01b0390911681526020016100d1565b6100a061011e366004610812565b61034e565b6100a0610131366004610812565b6103f9565b6100a0610144366004610859565b610494565b6000546001600160a01b0316331461017c5760405162461bcd60e51b815260040161017390610895565b60405180910390fd5b6001600160a01b0381166101bf5760405162461bcd60e51b815260206004820152600a6024820152697a65726f20616464722160b01b6044820152606401610173565b6001600160a01b03811660009081526001602052604090205460ff16156102175760405162461bcd60e51b815260206004820152600c60248201526b77686974656c69737465642160a01b6044820152606401610173565b6001600160a01b0381166000818152600160208190526040808320805460ff1916909217909155517f40a11accfdbddc53eb70bf66d96e37c666e9553aed915830708b17cb64456cc49190a250565b3360009081526001602052604090205460ff166102955760405162461bcd60e51b8152600401610173906108ca565b6001600160a01b0381166102dd5760405162461bcd60e51b815260206004820152600f60248201526e7a65726f20726563697069656e742160881b6044820152606401610173565b6040516001600160a01b0382169083156108fc029084906000818181858888f19350505050158015610313573d6000803e3d6000fd5b505050565b6000546001600160a01b031633146103425760405162461bcd60e51b815260040161017390610895565b61034c600061051f565b565b6000546001600160a01b031633146103785760405162461bcd60e51b815260040161017390610895565b6001600160a01b03811660009081526001602052604090205460ff166103b05760405162461bcd60e51b8152600401610173906108ca565b6001600160a01b038116600081815260016020526040808220805460ff19169055517fa151df7707003d8e3fdeb5a3b60e0bf190c69dc9fba7d6c48088a134f5146bbc9190a250565b6000546001600160a01b031633146104235760405162461bcd60e51b815260040161017390610895565b6001600160a01b0381166104885760405162461bcd60e51b815260206004820152602660248201527f4f776e61626c653a206e6577206f776e657220697320746865207a65726f206160448201526564647265737360d01b6064820152608401610173565b6104918161051f565b50565b3360009081526001602052604090205460ff166104c35760405162461bcd60e51b8152600401610173906108ca565b6001600160a01b03811661050b5760405162461bcd60e51b815260206004820152600f60248201526e7a65726f20726563697069656e742160881b6044820152606401610173565b6103136001600160a01b038416828461056f565b600080546001600160a01b038381166001600160a01b0319831681178455604051919092169283917f8be0079c531659141344cd1fd0a4f28419497f9722a3daafe3b4186f6b6457e09190a35050565b604080516001600160a01b03848116602483015260448083018590528351808403909101815260649092018352602080830180516001600160e01b031663a9059cbb60e01b17905283518085019094528084527f5361666545524332303a206c6f772d6c6576656c2063616c6c206661696c656490840152610313928692916000916105ff91851690849061067c565b805190915015610313578080602001905181019061061d91906108f4565b6103135760405162461bcd60e51b815260206004820152602a60248201527f5361666545524332303a204552433230206f7065726174696f6e20646964206e6044820152691bdd081cdd58d8d9595960b21b6064820152608401610173565b606061068b8484600085610695565b90505b9392505050565b6060824710156106f65760405162461bcd60e51b815260206004820152602660248201527f416464726573733a20696e73756666696369656e742062616c616e636520666f6044820152651c8818d85b1b60d21b6064820152608401610173565b843b6107445760405162461bcd60e51b815260206004820152601d60248201527f416464726573733a2063616c6c20746f206e6f6e2d636f6e74726163740000006044820152606401610173565b600080866001600160a01b031685876040516107609190610946565b60006040518083038185875af1925050503d806000811461079d576040519150601f19603f3d011682016040523d82523d6000602084013e6107a2565b606091505b50915091506107b28282866107bd565b979650505050505050565b606083156107cc57508161068e565b8251156107dc5782518084602001fd5b8160405162461bcd60e51b81526004016101739190610962565b80356001600160a01b038116811461080d57600080fd5b919050565b60006020828403121561082457600080fd5b61068e826107f6565b6000806040838503121561084057600080fd5b82359150610850602084016107f6565b90509250929050565b60008060006060848603121561086e57600080fd5b610877846107f6565b92506020840135915061088c604085016107f6565b90509250925092565b6020808252818101527f4f776e61626c653a2063616c6c6572206973206e6f7420746865206f776e6572604082015260600190565b60208082526010908201526f6e6f742077686974656c69737465642160801b604082015260600190565b60006020828403121561090657600080fd5b8151801515811461068e57600080fd5b60005b83811015610931578181015183820152602001610919565b83811115610940576000848401525b50505050565b60008251610958818460208701610916565b9190910192915050565b6020815260008251806020840152610981816040850160208701610916565b601f01601f1916919091016040019291505056fea264697066735822122035e18b7f0cd8bbd89ef89b52e45dec988b418d6cf264859943d5d2934663505c64736f6c634300080a0033",
  "devdoc": {
    "kind": "dev",
    "methods": {
      "owner()": {
        "details": "Returns the address of the current owner."
      },
      "renounceOwnership()": {
        "details": "Leaves the contract without owner. It will not be possible to call `onlyOwner` functions anymore. Can only be called by the current owner. NOTE: Renouncing ownership will leave the contract without an owner, thereby removing any functionality that is only available to the owner."
      },
      "transferOwnership(address)": {
        "details": "Transfers ownership of the contract to a new account (`newOwner`). Can only be called by the current owner."
      }
    },
    "version": 1
  },
  "userdoc": {
    "kind": "user",
    "methods": {},
    "version": 1
  },
  "storageLayout": {
    "storage": [
      {
        "astId": 273,
        "contract": "contracts/LuckyTreasury.sol:LuckyTreasury",
        "label": "_owner",
        "offset": 0,
        "slot": "0",
        "type": "t_address"
      },
      {
        "astId": 2058,
        "contract": "contracts/LuckyTreasury.sol:LuckyTreasury",
        "label": "whitelistedGames",
        "offset": 0,
        "slot": "1",
        "type": "t_mapping(t_address,t_bool)"
      }
    ],
    "types": {
      "t_address": {
        "encoding": "inplace",
        "label": "address",
        "numberOfBytes": "20"
      },
      "t_bool": {
        "encoding": "inplace",
        "label": "bool",
        "numberOfBytes": "1"
      },
      "t_mapping(t_address,t_bool)": {
        "encoding": "mapping",
        "key": "t_address",
        "label": "mapping(address => bool)",
        "numberOfBytes": "32",
        "value": "t_bool"
      }
    }
  }
}